:020000040000FA
:04000000B2EF00F06B
:100008004282D9CF02F0DACF03F0F3CF04F0F4CF75
:1000180005F0F2A412EF00F014EF00F044EF00F046
:10002800F2AA19EF00F01BEF00F044EF00F021EE08
:100038007BF0DF50DF2A80C101F0015CD8B027EFE8
:1000480000F029EF00F038EF00F021EE7CF0010E0F
:10005800DF6431EF00F033EF00F038EF00F0010E0D
:10006800E8CF7FF13DEF00F0000EE8CF7FF13DEFE4
:1000780000F0000ED76E000ED66EF29444EF00F03A
:100088009EA049EF00F04BEF00F05EEF00F09DA05E
:1000980050EF00F052EF00F05EEF00F0010E262660
:1000A800000E272228222922CF68320ECE6E9E907B
:1000B8005EEF00F09EAA63EF00F065EF00F0A8EF96
:1000C80000F0ABB46AEF00F06CEF00F073EF00F0F3
:1000D800ABA271EF00F073EF00F09EEF00F0AB9869
:1000E800AB889EEF00F09EEF00F0000EE8CF7BF1AA
:1000F80021EE7CF0FD0EDF6484EF00F086EF00F067
:1001080089EF00F0000EE8CF7CF1AECF06F07CC19D
:1001180001F00150010D7C0EF324D96E000EF4207D
:10012800DA6E06C0DFFF7CC1E8FF010FE8CF7CF183
:100138009EEF00F09EBAA3EF00F0A5EF00F079EF74
:1001480000F09E9AA8EF00F005C0F4FF04C0F3FF8A
:1001580003C0DAFF02C0D9FF4292110057EF09F03D
:10016800B2EC08F0E4EC02F0000E0001616F000E42
:10017800606FDBEF00F0818A030E226E080E216E9D
:10018800770EE82EFED7212EFCD7222EFAD700F0C4
:10019800819A020E226E040E216EBA0EE82EFED748
:1001A800212EFCD7222EFAD700D0DBEF00F02B50FF
:1001B800216E226A00016051236E6151246E604BEA
:1001C800612B2150235C2450800A256E2250800A1E
:1001D8002558D8A0F2EF00F0F4EF00F0BFEF00F0E0
:1001E800F6EF00F02EC01EF02FC01FF0FEEC08F056
:1001F8007C0E076E000E086E000E0A6E000E096E69
:10020800000E0C6E0B681EEC09F0030EE8CF80F1AF
:10021800F28E040021EE7FF0DF50D8B416EF01F023
:1002280018EF01F023EF01F07C0E186E000E196E26
:1002380044EC04F0000EE8CF7FF123EF01F021EE4B
:1002480081F0DF50D8B42BEF01F02DEF01F00DEF66
:1002580001F0F29E38C07AF039C07BF0000E396E9A
:10026800000E386E000E0001636F000E626F8BEF98
:1002780001F08280000E656F000E646F4FEF01F091
:100288000400030E216E980EE82EFED7212EFCD70F
:100298000001644B652B3150216E226A2150645D48
:1002A8006551800A236E2250800A2358D8A05FEF38
:1002B80001F061EF01F044EF01F08290000E676FEA
:1002C800000E666F73EF01F00400030E216E980EA6
:1002D800E82EFED7212EFCD70001664B672B305045
:1002E800216E226A2150665D6751800A236E225072
:1002F800800A2358D8A083EF01F085EF01F068EF5A
:1003080001F087EF01F0624B632B8BEF01F07A511C
:10031800625D6351800A216E7B51800A2158D8A002
:1003280098EF01F09AEF01F03DEF01F03AC07AF052
:100338003BC07BF0000E3B6E000E3A6E000E696FFC
:10034800000E686FF6EF01F08282000E6B6F000EF0
:100358006A6FBAEF01F00400030E216E980EE82EC2
:10036800FED7212EFCD700016A4B6B2B3350216E30
:10037800226A21506A5D6B51800A236E2250800ADE
:100388002358D8A0CAEF01F0CCEF01F0AFEF01F08D
:100398008292000E6D6F000E6C6FDEEF01F00400AC
:1003A800030E216E980EE82EFED7212EFCD70001F1
:1003B8006C4B6D2B3250216E226A21506C5D6D5151
:1003C800800A236E2250800A2358D8A0EEEF01F04D
:1003D800F0EF01F0D3EF01F0F2EF01F0684B692B79
:1003E800F6EF01F07A51685D6951800A216E7B5100
:1003F800800A2158D8A003EF02F005EF02F0A8EF19
:1004080001F03CC07AF03DC07BF0000E3D6E000E5E
:100418003C6E000E6F6F000E6E6F61EF02F082840B
:10042800000E716F000E706F25EF02F00400030ECE
:10043800216E980EE82EFED7212EFCD70001704BB6
:10044800712B3550216E226A2150705D7151800ADE
:10045800236E2250800A2358D8A035EF02F037EFD8
:1004680002F01AEF02F08294000E736F000E726FA2
:1004780049EF02F00400030E216E980EE82EFED715
:10048800212EFCD70001724B732B3450216E226A47
:100498002150725D7351800A236E2250800A2358BE
:1004A800D8A059EF02F05BEF02F03EEF02F05DEFEB
:1004B80002F06E4B6F2B61EF02F07A516E5D6F5157
:1004C800800A216E7B51800A2158D8A06EEF02F075
:1004D80070EF02F013EF02F03EC07AF03FC07BF0FD
:1004E800000E3F6E000E3E6E000E756F000E746FAC
:1004F800CCEF02F08286000E776F000E766F90EFD9
:1005080002F00400030E216E980EE82EFED7212E6D
:10051800FCD70001764B772B3750216E226A215089
:10052800765D7751800A236E2250800A2358D8A01E
:10053800A0EF02F0A2EF02F085EF02F08296000E23
:10054800796F000E786FB4EF02F00400030E216E8D
:10055800980EE82EFED7212EFCD70001784B792B78
:100568003650216E226A2150785D7951800A236EB7
:100578002250800A2358D8A0C4EF02F0C6EF02F038
:10058800A9EF02F0C8EF02F0744B752BCCEF02F024
:100598007A51745D7551800A216E7B51800A215809
:1005A800D8A0D9EF02F0DBEF02F07EEF02F0F28E76
:1005B8000DEF01F00DEF01F00DEF01F0B2EF00F0DB
:1005C800AA0E136E000E6EEC09F0126E2C0E076E5A
:1005D800000E086E000E0A6E000E096E000E0C6EFC
:1005E800160E0B6E1EEC09F00400010E6EEC09F0FD
:1005F8002B6E000E2D6E010E6EEC09F02C6E020EA5
:100608006EEC09F02F6E030E6EEC09F02E6E040EE0
:100618006EEC09F0316E050E6EEC09F0306E060EC8
:100628006EEC09F0336E070E6EEC09F0326E080EB0
:100638006EEC09F0356E090E6EEC09F0346E0A0E98
:100648006EEC09F0376E0B0E6EEC09F0366E040096
:10065800000E156E000E146E15BE3CEF03F015501B
:1006680009E1060E145CD8A03CEF03F03EEF03F05E
:1006780042EF03F073EF03F073EF03F0D8901434F4
:10068800D96E1534DA6E2C0ED926000EDA22DF5018
:100698000F6E14C010F015C011F0D8901036113636
:1006A800010E1026000E11222C0E1024D96E000EF9
:1006B8001120DA6EDF500F18131A144A152A15BEC6
:1006C8006FEF03F0155009E1060E145CD8A06FEF28
:1006D80003F071EF03F042EF03F073EF03F039EC2E
:1006E80008F00009D8B47BEF03F07DEF03F080EF4A
:1006F80003F039EC08F02B6E040012501318D8B42C
:1007080088EF03F08AEF03F043EF04F039EC08F0C8
:100718002B6E000E2D6E2BC02CF0250E2F6E800E2A
:100728002E6E640E316E640E306E640E336E640E7F
:10073800326E640E356E640E346E640E376E640E5F
:10074800366E0400000E176E000E166E17BEB6EF5A
:1007580003F0175009E1060E165CD8A0B6EF03F0B7
:10076800B8EF03F0BCEF03F0EBEF03F0EBEF03F0AF
:10077800D8901634D96E1734DA6E2C0ED926000E9E
:10078800DA22DF500F6E16C010F017C011F0D890A3
:1007980010361136010E1026000E11222C0E1024D0
:1007A800D96E000E1120DA6EDF500F18131A164A90
:1007B800172A17BEE9EF03F0175009E1060E165C79
:1007C800D8A0E9EF03F0EBEF03F0BCEF03F004006F
:1007D80013C02DF00400000E196E000E186E19BE1D
:1007E800FFEF03F0195009E1060E185CD8A0FFEFDF
:1007F80003F001EF04F005EF04F03FEF04F03FEFE2
:1008080004F0040018C00FF019C010F0D8900F368B
:100818001036010E0F26000E10222C0E0F24D96E52
:10082800000E1020DA6EDF50076E18501824DCEC2A
:1008380008F00400D8901834D96E1934DA6E2C0EEA
:10084800D926000EDA22DF50076ED8801834DCEC87
:1008580008F0184A192A19BE3BEF04F0195009E1AB
:10086800060E185CD8A03BEF04F03DEF04F005EF4E
:1008780004F03FEF04F0000E2D6E43EF04F0120079
:1008880018C0D9FF19C0DAFF2B50DE18D8B44FEFC3
:1008980004F051EF04F05FEF04F018C0D9FF19C05D
:1008A800DAFFDE28D8A45BEF04F05DEF04F06EEF0A
:1008B80005F05FEF04F021EE00F01850D92619502A
:1008C800DA22050EDF646BEF04F06DEF04F06EEFD3
:1008D80005F018C007F019C008F021EE00F0185014
:1008E800D9261950DA22DF501A6EFE0E1A24096E24
:1008F8000A6AFF0E0A220CEC07F007C01FF008C0B6
:1009080020F0FE0E1A6EFF0E1B6E21EE00F018503E
:10091800D9261950DA22DF501C6E1D6A1A501C267F
:100928001B501D221C501824D96E1D501920DA6E38
:10093800DF501E6E1F501E18D8A4A5EF04F0A7EFB5
:1009480004F04EEF05F0FF0E1A6EFF0E1B6E21EE3F
:1009580000F01850D9261950DA22DF501C6E1D6A93
:100968001A501C261B501D221C501824D96E1D50CD
:100978001920DA6EDF501E6E20501E18D8A4C7EF5B
:1009880004F0C9EF04F04EEF05F0E9EF04F0E9EFE9
:1009980004F018C00AF019C00BF089EC05F0FAEF62
:1009A80004F018C00AF019C00BF06DEC06F0FAEF6D
:1009B80004F018C007F019C008F0010E096E3EECEB
:1009C80009F0FAEF04F0FAEF04F020EE01F0185005
:1009D800D9261950DA22DF50030AD8B4CDEF04F033
:1009E800130AD8B4D5EF04F0DDEF04F018C007F00F
:1009F80019C008F021EE02F01850D9261950DA2251
:100A0800DF501A6EFE0E1A24096E0A6AFF0E0A22B9
:100A18000CEC07F007C01FF008C020F0FE0E1A6E9D
:100A2800FF0E1B6E21EE02F01850D9261950DA225B
:100A3800DF501C6E1D6A1A501C261B501D221C50AC
:100A48001824D96E1D501920DA6E1FC0DFFFFF0E63
:100A58001A6EFF0E1B6E21EE02F01850D92619509F
:100A6800DA22DF501C6E1D6A1A501C261B501D22EC
:100A78001C501824D96E1D501920DA6E2050DF6ED4
:100A880021EE01F01850D9261950DA22000EDF6E37
:100A98004EEF05F018C007F019C008F0EAEC07F0AF
:100AA80021EE03F01850D9261950DA22000EDF6E15
:100AB80021EE00F01850D9261950DA22000EDF6E08
:100AC80020EEFFF01850D9261950DA22000EDF6EFA
:100AD80088EF05F021EE03F01850D9261950DA22D4
:100AE800000EDF6E21EE00F01850D9261950DA22D8
:100AF800000EDF6E20EEFFF01850D9261950DA22CA
:100B0800000EDF6E88EF05F01200000E176E000E63
:100B1800166E000E116E000E106E20EE03F00A50D5
:100B2800D9260B50DA22DF500C6E20EE02F00A5064
:100B3800D9260B50DA22DF500D6E0D500F6E0E6A5B
:100B48000C500E24126E000E0F20136E20EE05F0CE
:100B58000A50D9260B50DA22DF500C6E20EE04F032
:100B68000A50D9260B50DA22DF500D6E0D500F6E49
:100B78000E6A0C500E24146E000E0F20156E000E17
:100B8800116E030E106E14501510D8B4CEEF05F088
:100B9800D0EF05F062EF06F0FF0E0C6EFF0E0D6E43
:100BA800125014240E6E135015200F6E0C500E2682
:100BB8000D500F220F5007E10B0E0E5CD8B0E7EF77
:100BC80005F0E9EF05F062EF06F0145012240C6E00
:100BD800155013200D6E0D5007E10C0E0C5CD8B0AB
:100BE800F8EF05F0FAEF05F062EF06F0000E176E69
:100BF800000E166E40EF06F0165012240C6E1750B9
:100C080013200D6ED8900C360D36010E0C26000EF2
:100C18000D222C0E0C24D96E000E0D20DA6E105009
:100C28000A24E16E11500B20E26EDFCFE7FF165069
:100C380012240C6E175013200D6ED8900C360D36FA
:100C48002C0E0C24D96E000E0D20DA6E010E102425
:100C58000E6E000E11200F6E0E500A24E16E0F501A
:100C68000B20E26EDFCFE7FF020E1026000E1122E6
:100C7800164A172A40EF06F01450165C15501758FC
:100C8800D8A049EF06F04BEF06F000EF06F04DEF65
:100C980006F020EE02F00A50D9260B50DA22165040
:100CA8001624DF6E21EE02F00A50D9260B50DA2204
:100CB80016501624050FDF6E6CEF06F00AC007F019
:100CC8000BC008F0020E096E3EEC09F06CEF06F05E
:100CD800120020EE03F00A50D9260B50DA22DF501A
:100CE8000C6E20EE02F00A50D9260B50DA22DF50A3
:100CF8000D6E0D500F6E0E6A0C500E24166E000EFF
:100D08000F20176E20EE05F00A50D9260B50DA2274
:100D1800DF50126E125016240C6E000E17200D6E46
:100D28000D5007E10C0E0C5CD8B09DEF06F09FEF5C
:100D380006F001EF07F0070E156E16C013F017C086
:100D480014F0DAEF06F01550010DF3500A24D96EAD
:100D5800F4500B20DA6EDF500C6E0C500E6E0D6ADC
:100D680015500F6E106A010E0F26000E10220F503C
:100D78000A24D96E10500B20DA6EDF50116E115014
:100D88000D26000E0E22D8901334D96E1434DA6E64
:100D98002C0ED926000EDA220DC0DEFF0EC0DDFFB4
:100DA800020E1526134A142ADAEF06F012501624FA
:100DB8000C6E000E17200D6E0C50135C0D5014585D
:100DC800D8A0E9EF06F0EBEF06F0A7EF06F0EDEF9D
:100DD80006F021EE02F00A50D9260B50DA22080E4E
:100DE800DF6E21EE05F00A50D9260B50DA22010EEB
:100DF800DF6E404A412A0BEF07F00AC007F00BC02C
:100E080008F0020E096E3EEC09F00BEF07F0120035
:100E1800000E126E000E116E07500810D8B417EFAE
:100E280007F019EF07F089EF07F0116812680ABE9A
:100E380028EF07F00A5006E10904D8B026EF07F0BA
:100E480028EF07F02CEF07F089EF07F089EF07F09C
:100E5800FF0E11140B6E000E12140C6E07C0D9FF92
:100E680008C0DAFFDF500D6E0D500B1A000E0C1A79
:100E780012500F6E0E6A0B500E24116E0C500F207C
:100E8800126E074A082A000E106E070E10644FEF04
:100E980007F051EF07F055EF07F077EF07F077EF1E
:100EA80007F011A05AEF07F05CEF07F069EF07F0C1
:100EB800D89012300C6E11300B6E010E0B18116E9B
:100EC800A00E0C18126E6CEF07F0D8901232113287
:100ED800102A070E106473EF07F075EF07F055EF4F
:100EE80007F077EF07F00906D8A00A060ABE87EFD1
:100EF80007F00A5006E10904D8B085EF07F087EF3C
:100F080007F02CEF07F089EF07F011C007F012C0C7
:100F180008F01200000E0F6E000E106E000E116E1B
:100F2800000E126E0B500C100D100E10D8B49FEF5F
:100F380007F0A1EF07F0E1EF07F0010E136EADEF38
:100F480007F0D8900B360C360D360E36132AADEF57
:100F580007F00EAEB2EF07F0B4EF07F0A5EF07F019
:100F6800B8EF07F0B8EF07F0D8900F361036113603
:100F780012360B50075C0C5008580D5009580E508B
:100F88000A58D8A0CAEF07F0CCEF07F0D7EF07F060
:100F98000B50075E0C50085A0D50095A0E500A5A49
:100FA8000F80D7EF07F0D8900E320D320C320B328B
:100FB800132EB8EF07F0E1EF07F00FC007F010C0ED
:100FC80008F011C009F012C00AF01200949CAB9806
:100FD800AC8AF29E828C18EF08F021EE01F00750DF
:100FE800D9260850DA22DF50096E0950010DF35056
:100FF8000724D96EF4500820DA6EDF50AD6E21EE6A
:1010080001F00750D9260850DA22DF2A0DEF08F040
:1010180000F09EA812EF08F014EF08F00CEF08F0AB
:1010280018EF08F018EF08F021EE02F00750D92663
:101038000850DA2211EE01F00750E1260850E222AA
:10104800DE50E65CD8A02BEF08F02DEF08F0F1EFAA
:1010580007F0829CF28E21EE02F00750D926085044
:10106800DA22000EDF6EAB881200000E086E82BA1C
:1010780040EF08F044EF08F0076A072A45EF08F048
:10108800076AD8900736D8900736D89007340826CC
:1010980082BE51EF08F055EF08F0076A072A56EFAD
:1010A80008F0076AD8900736D8900734082681BC1C
:1010B80060EF08F064EF08F0076A072A65EF08F0A8
:1010C800076AD8900734082681B86DEF08F070EFEA
:1010D80008F0010E71EF08F0000E08260850D8A499
:1010E80078EF08F07AEF08F07CEF08F0640E086EED
:1010F80008507FEF08F01200000E166E120E176EE1
:101108007A0E186E000E196E14C01AF015C01BF076
:101118001C6A1D6A040ED8901A361B361C361D36FA
:10112800E82E8FEF08F016C007F017C008F018C0B7
:1011380009F019C00AF01AC00BF01BC00CF01CC053
:101148000DF01DC00EF08EEC07F0FF0E0724146E94
:10115800FF0E0820156EB1EF08F01200600ED36E76
:10116800000E9B6E000E7E6E000E7F6E000E766E79
:10117800000E806E030E926E000E816E000E936E4E
:10118800000E816E000E826EB00E946EC70ED56E84
:10119800FC0ECF6EDF0ECE6E000ECD6ECD92CD94CE
:1011A800CD9CCD80CD98CD9A9D80F28A0400120006
:1011B800086E08C0A9FF07C0A8FFA69EA69CA68423
:1011C800000EF2BE010E096EF29E550EA76EAA0E13
:1011D800A76EA682F0EF08F0A6B2F5EF08F0F7EFD9
:1011E80008F0F0EF08F0A69409B002D0F29E01D002
:1011F800F28E1200250E1F6E800E1E6E939E938A2D
:10120800949C829C000EB06E1EC014F01FC015F096
:1012180080EC08F01450AF6EF28C9D8A9D98AC9CBF
:10122800AC90AC8AAC98AC94B886AB8EAB9CAB88CF
:101238000400120007C00DF008C00EF02EEF09F0F0
:101248000DC0D9FF0EC0DAFF09C0DFFF0D4A0E2A14
:101258002EEF09F00B06D8A00C060B2806E10C2887
:10126800D8A439EF09F03BEF09F024EF09F03DEF7E
:1012780009F0120020EE01F00750D9260850DA22B2
:10128800000EDB8E20EE02F00750D9260850DA2235
:1012980009C0DFFF21EE02F00750D9260850DA22F4
:1012A800050EDF6E120000EE7CF011EE06F0EE6A1D
:1012B800E550E150FCE1E250FAE100EE26F01C0EA8
:1012C800EE6AE806FDE142904292000EF86E0001D7
:1012D800B4EF00F0076E07C0A9FFA69EA68076EFC0
:1012E80009F000F0A6B07BEF09F07DEF09F075EF8B
:0612F80009F0A8501200ED
:020000040020DA
:08000000FFFFFFFFFFFFFFFF00
:020000040030CA
:0E000000FF281E1FFF8885FF03C003E003409A
:0200000400F00A
:1000000000012580FAFA6464FAFAFAFA00000000A6
:00000001FF
